{
  "_format": "hh-sol-artifact-1",
  "contractName": "SmartContract",
  "sourceName": "contracts/SmartContract.sol",
  "abi": [
    {
      "anonymous": false,
      "inputs": [
        {
          "indexed": true,
          "internalType": "address",
          "name": "from",
          "type": "address"
        },
        {
          "indexed": true,
          "internalType": "address",
          "name": "receiver",
          "type": "address"
        },
        {
          "indexed": false,
          "internalType": "uint256",
          "name": "amount",
          "type": "uint256"
        },
        {
          "indexed": false,
          "internalType": "string",
          "name": "documentHash",
          "type": "string"
        },
        {
          "indexed": false,
          "internalType": "string",
          "name": "doi",
          "type": "string"
        },
        {
          "indexed": false,
          "internalType": "string",
          "name": "message",
          "type": "string"
        },
        {
          "indexed": false,
          "internalType": "uint256",
          "name": "timestamp",
          "type": "uint256"
        }
      ],
      "name": "Transfer",
      "type": "event"
    },
    {
      "inputs": [
        {
          "internalType": "uint256[4]",
          "name": "percentages",
          "type": "uint256[4]"
        },
        {
          "internalType": "uint256[6]",
          "name": "limits",
          "type": "uint256[6]"
        },
        {
          "internalType": "address payable[]",
          "name": "receivers",
          "type": "address[]"
        },
        {
          "internalType": "uint256[]",
          "name": "percentages_authors",
          "type": "uint256[]"
        },
        {
          "internalType": "address payable[]",
          "name": "receivers_authors",
          "type": "address[]"
        },
        {
          "internalType": "string",
          "name": "documentHash",
          "type": "string"
        },
        {
          "internalType": "string",
          "name": "doi",
          "type": "string"
        },
        {
          "internalType": "string",
          "name": "message",
          "type": "string"
        }
      ],
      "name": "addTransaction",
      "outputs": [],
      "stateMutability": "payable",
      "type": "function"
    },
    {
      "inputs": [],
      "name": "getAllTransaction",
      "outputs": [
        {
          "components": [
            {
              "internalType": "address",
              "name": "sender",
              "type": "address"
            },
            {
              "internalType": "address",
              "name": "receiver",
              "type": "address"
            },
            {
              "internalType": "uint256",
              "name": "amount",
              "type": "uint256"
            },
            {
              "internalType": "string",
              "name": "documentHash",
              "type": "string"
            },
            {
              "internalType": "string",
              "name": "doi",
              "type": "string"
            },
            {
              "internalType": "string",
              "name": "message",
              "type": "string"
            },
            {
              "internalType": "uint256",
              "name": "timestamp",
              "type": "uint256"
            }
          ],
          "internalType": "struct SmartContract.TransferStruct[]",
          "name": "",
          "type": "tuple[]"
        }
      ],
      "stateMutability": "view",
      "type": "function"
    },
    {
      "inputs": [],
      "name": "getTransactionCount",
      "outputs": [
        {
          "internalType": "uint256",
          "name": "",
          "type": "uint256"
        }
      ],
      "stateMutability": "view",
      "type": "function"
    }
  ],
  "bytecode": "0x608060405234801561001057600080fd5b50611f84806100206000396000f3fe6080604052600436106100345760003560e01c80632e7700f0146100395780637abfa31214610064578063add6415d14610080575b600080fd5b34801561004557600080fd5b5061004e6100ab565b60405161005b9190611a3a565b60405180910390f35b61007e600480360381019061007991906113cf565b6100b4565b005b34801561008c57600080fd5b50610095610ac1565b6040516100a29190611918565b60405180910390f35b60008054905090565b600680146100f7576040517f08c379a00000000000000000000000000000000000000000000000000000000081526004016100ee906119da565b60405180910390fd5b6004801461013a576040517f08c379a0000000000000000000000000000000000000000000000000000000008152600401610131906119fa565b60405180910390fd5b600086511161017e576040517f08c379a00000000000000000000000000000000000000000000000000000000081526004016101759061197a565b60405180910390fd5b60008551116101c2576040517f08c379a00000000000000000000000000000000000000000000000000000000081526004016101b9906119ba565b60405180910390fd5b6000845111610206576040517f08c379a00000000000000000000000000000000000000000000000000000000081526004016101fd9061199a565b60405180910390fd5b60003373ffffffffffffffffffffffffffffffffffffffff163111610260576040517f08c379a00000000000000000000000000000000000000000000000000000000081526004016102579061195a565b60405180910390fd5b600034116102a3576040517f08c379a000000000000000000000000000000000000000000000000000000000815260040161029a90611a1a565b60405180910390fd5b60006064896000600481106102e1577f4e487b7100000000000000000000000000000000000000000000000000000000600052603260045260246000fd5b6020020151346102f19190611cba565b6102fb9190611c89565b9050600088600060068110610339577f4e487b7100000000000000000000000000000000000000000000000000000000600052603260045260246000fd5b602002015190505b8860016006811061037b577f4e487b7100000000000000000000000000000000000000000000000000000000600052603260045260246000fd5b6020020151811015610432576103d5338983815181106103c4577f4e487b7100000000000000000000000000000000000000000000000000000000600052603260045260246000fd5b602002602001015184888888610d96565b61041f888281518110610411577f4e487b7100000000000000000000000000000000000000000000000000000000600052603260045260246000fd5b602002602001015183610fa9565b808061042a90611e0a565b915050610341565b5060648960016004811061046f577f4e487b7100000000000000000000000000000000000000000000000000000000600052603260045260246000fd5b60200201513461047f9190611cba565b6104899190611c89565b90506000886002600681106104c7577f4e487b7100000000000000000000000000000000000000000000000000000000600052603260045260246000fd5b602002015189600360068110610506577f4e487b7100000000000000000000000000000000000000000000000000000000600052603260045260246000fd5b60200201516105159190611d14565b9050600081836105259190611c89565b905060008a600260068110610563577f4e487b7100000000000000000000000000000000000000000000000000000000600052603260045260246000fd5b602002015190505b8a6003600681106105a5577f4e487b7100000000000000000000000000000000000000000000000000000000600052603260045260246000fd5b602002015181101561065c576105ff338b83815181106105ee577f4e487b7100000000000000000000000000000000000000000000000000000000600052603260045260246000fd5b6020026020010151848a8a8a610d96565b6106498a828151811061063b577f4e487b7100000000000000000000000000000000000000000000000000000000600052603260045260246000fd5b602002602001015183610fa9565b808061065490611e0a565b91505061056b565b5060648b600260048110610699577f4e487b7100000000000000000000000000000000000000000000000000000000600052603260045260246000fd5b6020020151346106a99190611cba565b6106b39190611c89565b9250896004600681106106ef577f4e487b7100000000000000000000000000000000000000000000000000000000600052603260045260246000fd5b60200201518a60056006811061072e577f4e487b7100000000000000000000000000000000000000000000000000000000600052603260045260246000fd5b602002015161073d9190611d14565b9150818361074b9190611c89565b905060008a600460068110610789577f4e487b7100000000000000000000000000000000000000000000000000000000600052603260045260246000fd5b602002015190505b8a6005600681106107cb577f4e487b7100000000000000000000000000000000000000000000000000000000600052603260045260246000fd5b602002015181101561088257610825338b8381518110610814577f4e487b7100000000000000000000000000000000000000000000000000000000600052603260045260246000fd5b6020026020010151848a8a8a610d96565b61086f8a8281518110610861577f4e487b7100000000000000000000000000000000000000000000000000000000600052603260045260246000fd5b602002602001015183610fa9565b808061087a90611e0a565b915050610791565b5060648b6003600481106108bf577f4e487b7100000000000000000000000000000000000000000000000000000000600052603260045260246000fd5b6020020151346108cf9190611cba565b6108d99190611c89565b92506000805b88518110156109fe57600060648b8381518110610925577f4e487b7100000000000000000000000000000000000000000000000000000000600052603260045260246000fd5b6020026020010151876109389190611cba565b6109429190611c89565b905080836109509190611c33565b92506109a0338b848151811061098f577f4e487b7100000000000000000000000000000000000000000000000000000000600052603260045260246000fd5b6020026020010151838c8c8c610d96565b6109ea8a83815181106109dc577f4e487b7100000000000000000000000000000000000000000000000000000000600052603260045260246000fd5b602002602001015182610fa9565b5080806109f690611e0a565b9150506108df565b5060008185610a0d9190611d14565b905060008114610ab257610a66338a600081518110610a55577f4e487b7100000000000000000000000000000000000000000000000000000000600052603260045260246000fd5b6020026020010151838b8b8b610d96565b610ab189600081518110610aa3577f4e487b7100000000000000000000000000000000000000000000000000000000600052603260045260246000fd5b602002602001015182610fa9565b5b50505050505050505050505050565b60606001805480602002602001604051908101604052809291908181526020016000905b82821015610d8d57838290600052602060002090600702016040518060e00160405290816000820160009054906101000a900473ffffffffffffffffffffffffffffffffffffffff1673ffffffffffffffffffffffffffffffffffffffff1673ffffffffffffffffffffffffffffffffffffffff1681526020016001820160009054906101000a900473ffffffffffffffffffffffffffffffffffffffff1673ffffffffffffffffffffffffffffffffffffffff1673ffffffffffffffffffffffffffffffffffffffff16815260200160028201548152602001600382018054610bce90611dd8565b80601f0160208091040260200160405190810160405280929190818152602001828054610bfa90611dd8565b8015610c475780601f10610c1c57610100808354040283529160200191610c47565b820191906000526020600020905b815481529060010190602001808311610c2a57829003601f168201915b50505050508152602001600482018054610c6090611dd8565b80601f0160208091040260200160405190810160405280929190818152602001828054610c8c90611dd8565b8015610cd95780601f10610cae57610100808354040283529160200191610cd9565b820191906000526020600020905b815481529060010190602001808311610cbc57829003601f168201915b50505050508152602001600582018054610cf290611dd8565b80601f0160208091040260200160405190810160405280929190818152602001828054610d1e90611dd8565b8015610d6b5780601f10610d4057610100808354040283529160200191610d6b565b820191906000526020600020905b815481529060010190602001808311610d4e57829003601f168201915b5050505050815260200160068201548152505081526020019060010190610ae5565b50505050905090565b6001600080828254610da89190611c33565b9250508190555060016040518060e001604052808873ffffffffffffffffffffffffffffffffffffffff1681526020018773ffffffffffffffffffffffffffffffffffffffff16815260200186815260200185815260200184815260200183815260200142815250908060018154018082558091505060019003906000526020600020906007020160009091909190915060008201518160000160006101000a81548173ffffffffffffffffffffffffffffffffffffffff021916908373ffffffffffffffffffffffffffffffffffffffff16021790555060208201518160010160006101000a81548173ffffffffffffffffffffffffffffffffffffffff021916908373ffffffffffffffffffffffffffffffffffffffff160217905550604082015181600201556060820151816003019080519060200190610eed92919061105a565b506080820151816004019080519060200190610f0a92919061105a565b5060a0820151816005019080519060200190610f2792919061105a565b5060c0820151816006015550508473ffffffffffffffffffffffffffffffffffffffff168673ffffffffffffffffffffffffffffffffffffffff167fd0988c7ccb1825720ef331447f9c8558980f3f1b132aa85562d365061f1a8e098686868642604051610f99959493929190611a55565b60405180910390a3505050505050565b60008273ffffffffffffffffffffffffffffffffffffffff1682604051610fcf90611903565b60006040518083038185875af1925050503d806000811461100c576040519150601f19603f3d011682016040523d82523d6000602084013e611011565b606091505b5050905080611055576040517f08c379a000000000000000000000000000000000000000000000000000000000815260040161104c9061193a565b60405180910390fd5b505050565b82805461106690611dd8565b90600052602060002090601f01602090048101928261108857600085556110cf565b82601f106110a157805160ff19168380011785556110cf565b828001600101855582156110cf579182015b828111156110ce5782518255916020019190600101906110b3565b5b5090506110dc91906110e0565b5090565b5b808211156110f95760008160009055506001016110e1565b5090565b600061111061110b84611aee565b611abd565b9050808382526020820190508285602086028201111561112f57600080fd5b60005b8581101561115f578161114588826112d9565b845260208401935060208301925050600181019050611132565b5050509392505050565b600061117c61117784611b1a565b611abd565b9050808285602086028201111561119257600080fd5b60005b858110156111c257816111a888826113ba565b845260208401935060208301925050600181019050611195565b5050509392505050565b60006111df6111da84611b40565b611abd565b905080828560208602820111156111f557600080fd5b60005b85811015611225578161120b88826113ba565b8452602084019350602083019250506001810190506111f8565b5050509392505050565b600061124261123d84611b66565b611abd565b9050808382526020820190508285602086028201111561126157600080fd5b60005b85811015611291578161127788826113ba565b845260208401935060208301925050600181019050611264565b5050509392505050565b60006112ae6112a984611b92565b611abd565b9050828152602081018484840111156112c657600080fd5b6112d1848285611d96565b509392505050565b6000813590506112e881611f20565b92915050565b600082601f8301126112ff57600080fd5b813561130f8482602086016110fd565b91505092915050565b600082601f83011261132957600080fd5b6004611336848285611169565b91505092915050565b600082601f83011261135057600080fd5b600661135d8482856111cc565b91505092915050565b600082601f83011261137757600080fd5b813561138784826020860161122f565b91505092915050565b600082601f8301126113a157600080fd5b81356113b184826020860161129b565b91505092915050565b6000813590506113c981611f37565b92915050565b600080600080600080600080610200898b0312156113ec57600080fd5b60006113fa8b828c01611318565b985050608061140b8b828c0161133f565b97505061014089013567ffffffffffffffff81111561142957600080fd5b6114358b828c016112ee565b96505061016089013567ffffffffffffffff81111561145357600080fd5b61145f8b828c01611366565b95505061018089013567ffffffffffffffff81111561147d57600080fd5b6114898b828c016112ee565b9450506101a089013567ffffffffffffffff8111156114a757600080fd5b6114b38b828c01611390565b9350506101c089013567ffffffffffffffff8111156114d157600080fd5b6114dd8b828c01611390565b9250506101e089013567ffffffffffffffff8111156114fb57600080fd5b6115078b828c01611390565b9150509295985092959890939650565b6000611523838361183b565b905092915050565b61153481611d48565b82525050565b600061154582611bd2565b61154f8185611bf5565b93508360208202850161156185611bc2565b8060005b8581101561159d578484038952815161157e8582611517565b945061158983611be8565b925060208a01995050600181019050611565565b50829750879550505050505092915050565b60006115ba82611bdd565b6115c48185611c11565b93506115d4818560208601611da5565b6115dd81611f0f565b840191505092915050565b60006115f382611bdd565b6115fd8185611c22565b935061160d818560208601611da5565b61161681611f0f565b840191505092915050565b600061162e601483611c22565b91507f4661696c656420746f2073656e642045746865720000000000000000000000006000830152602082019050919050565b600061166e601483611c22565b91507f496e73756666696369656e742062616c616e63650000000000000000000000006000830152602082019050919050565b60006116ae601683611c22565b91507f4e6f2072656365697665727320737065636966696564000000000000000000006000830152602082019050919050565b60006116ee601e83611c22565b91507f4e6f2072656365697665727320617574686f72732073706563696669656400006000830152602082019050919050565b600061172e601f83611c22565b91507f4e6f2070657263656e7461676520617574686f727320737065636966696564006000830152602082019050919050565b600061176e601b83611c22565b91507f496e76616c6964206c696d697473206172726179206c656e67746800000000006000830152602082019050919050565b60006117ae600083611c06565b9150600082019050919050565b60006117c8602083611c22565b91507f496e76616c69642070657263656e7461676573206172726179206c656e6774686000830152602082019050919050565b6000611808601283611c22565b91507f56616c7565206e6f742070726f766964656400000000000000000000000000006000830152602082019050919050565b600060e083016000830151611853600086018261152b565b506020830151611866602086018261152b565b50604083015161187960408601826118e5565b506060830151848203606086015261189182826115af565b915050608083015184820360808601526118ab82826115af565b91505060a083015184820360a08601526118c582826115af565b91505060c08301516118da60c08601826118e5565b508091505092915050565b6118ee81611d8c565b82525050565b6118fd81611d8c565b82525050565b600061190e826117a1565b9150819050919050565b60006020820190508181036000830152611932818461153a565b905092915050565b6000602082019050818103600083015261195381611621565b9050919050565b6000602082019050818103600083015261197381611661565b9050919050565b60006020820190508181036000830152611993816116a1565b9050919050565b600060208201905081810360008301526119b3816116e1565b9050919050565b600060208201905081810360008301526119d381611721565b9050919050565b600060208201905081810360008301526119f381611761565b9050919050565b60006020820190508181036000830152611a13816117bb565b9050919050565b60006020820190508181036000830152611a33816117fb565b9050919050565b6000602082019050611a4f60008301846118f4565b92915050565b600060a082019050611a6a60008301886118f4565b8181036020830152611a7c81876115e8565b90508181036040830152611a9081866115e8565b90508181036060830152611aa481856115e8565b9050611ab360808301846118f4565b9695505050505050565b6000604051905081810181811067ffffffffffffffff82111715611ae457611ae3611ee0565b5b8060405250919050565b600067ffffffffffffffff821115611b0957611b08611ee0565b5b602082029050602081019050919050565b600067ffffffffffffffff821115611b3557611b34611ee0565b5b602082029050919050565b600067ffffffffffffffff821115611b5b57611b5a611ee0565b5b602082029050919050565b600067ffffffffffffffff821115611b8157611b80611ee0565b5b602082029050602081019050919050565b600067ffffffffffffffff821115611bad57611bac611ee0565b5b601f19601f8301169050602081019050919050565b6000819050602082019050919050565b600081519050919050565b600081519050919050565b6000602082019050919050565b600082825260208201905092915050565b600081905092915050565b600082825260208201905092915050565b600082825260208201905092915050565b6000611c3e82611d8c565b9150611c4983611d8c565b9250827fffffffffffffffffffffffffffffffffffffffffffffffffffffffffffffffff03821115611c7e57611c7d611e53565b5b828201905092915050565b6000611c9482611d8c565b9150611c9f83611d8c565b925082611caf57611cae611e82565b5b828204905092915050565b6000611cc582611d8c565b9150611cd083611d8c565b9250817fffffffffffffffffffffffffffffffffffffffffffffffffffffffffffffffff0483118215151615611d0957611d08611e53565b5b828202905092915050565b6000611d1f82611d8c565b9150611d2a83611d8c565b925082821015611d3d57611d3c611e53565b5b828203905092915050565b6000611d5382611d6c565b9050919050565b6000611d6582611d6c565b9050919050565b600073ffffffffffffffffffffffffffffffffffffffff82169050919050565b6000819050919050565b82818337600083830152505050565b60005b83811015611dc3578082015181840152602081019050611da8565b83811115611dd2576000848401525b50505050565b60006002820490506001821680611df057607f821691505b60208210811415611e0457611e03611eb1565b5b50919050565b6000611e1582611d8c565b91507fffffffffffffffffffffffffffffffffffffffffffffffffffffffffffffffff821415611e4857611e47611e53565b5b600182019050919050565b7f4e487b7100000000000000000000000000000000000000000000000000000000600052601160045260246000fd5b7f4e487b7100000000000000000000000000000000000000000000000000000000600052601260045260246000fd5b7f4e487b7100000000000000000000000000000000000000000000000000000000600052602260045260246000fd5b7f4e487b7100000000000000000000000000000000000000000000000000000000600052604160045260246000fd5b6000601f19601f8301169050919050565b611f2981611d5a565b8114611f3457600080fd5b50565b611f4081611d8c565b8114611f4b57600080fd5b5056fea26469706673582212207262ddf9777fe00698845bbc87597d242adbc00af24912582e55aee207d9cc0c64736f6c63430008000033",
  "linkReferences": {},
  "deployedLinkReferences": {}
}