{
  "_format": "hh-sol-artifact-1",
  "contractName": "SmartContract",
  "sourceName": "contracts/SmartContract.sol",
  "abi": [
    {
      "anonymous": false,
      "inputs": [
        {
          "indexed": true,
          "internalType": "address",
          "name": "from",
          "type": "address"
        },
        {
          "indexed": true,
          "internalType": "address",
          "name": "receiver",
          "type": "address"
        },
        {
          "indexed": false,
          "internalType": "uint256",
          "name": "amount",
          "type": "uint256"
        },
        {
          "indexed": false,
          "internalType": "string",
          "name": "documentHash",
          "type": "string"
        },
        {
          "indexed": false,
          "internalType": "string",
          "name": "doi",
          "type": "string"
        },
        {
          "indexed": false,
          "internalType": "string",
          "name": "message",
          "type": "string"
        },
        {
          "indexed": false,
          "internalType": "uint256",
          "name": "timestamp",
          "type": "uint256"
        }
      ],
      "name": "Transfer",
      "type": "event"
    },
    {
      "inputs": [
        {
          "internalType": "uint256[6]",
          "name": "limits",
          "type": "uint256[6]"
        },
        {
          "internalType": "address payable[]",
          "name": "receivers",
          "type": "address[]"
        },
        {
          "internalType": "uint256[3]",
          "name": "percentages",
          "type": "uint256[3]"
        },
        {
          "internalType": "string",
          "name": "documentHash",
          "type": "string"
        },
        {
          "internalType": "string",
          "name": "doi",
          "type": "string"
        },
        {
          "internalType": "string",
          "name": "message",
          "type": "string"
        }
      ],
      "name": "addTransaction",
      "outputs": [],
      "stateMutability": "payable",
      "type": "function"
    },
    {
      "inputs": [],
      "name": "getAllTransaction",
      "outputs": [
        {
          "components": [
            {
              "internalType": "address",
              "name": "sender",
              "type": "address"
            },
            {
              "internalType": "address",
              "name": "receiver",
              "type": "address"
            },
            {
              "internalType": "uint256",
              "name": "amount",
              "type": "uint256"
            },
            {
              "internalType": "string",
              "name": "documentHash",
              "type": "string"
            },
            {
              "internalType": "string",
              "name": "doi",
              "type": "string"
            },
            {
              "internalType": "string",
              "name": "message",
              "type": "string"
            },
            {
              "internalType": "uint256",
              "name": "timestamp",
              "type": "uint256"
            }
          ],
          "internalType": "struct SmartContract.TransferStruct[]",
          "name": "",
          "type": "tuple[]"
        }
      ],
      "stateMutability": "view",
      "type": "function"
    },
    {
      "inputs": [],
      "name": "getTransactionCount",
      "outputs": [
        {
          "internalType": "uint256",
          "name": "",
          "type": "uint256"
        }
      ],
      "stateMutability": "view",
      "type": "function"
    }
  ],
  "bytecode": "0x608060405234801561001057600080fd5b50611baa806100206000396000f3fe6080604052600436106100345760003560e01c80632e7700f0146100395780639ee4f05814610064578063add6415d14610080575b600080fd5b34801561004557600080fd5b5061004e6100ab565b60405161005b919061168c565b60405180910390f35b61007e60048036038101906100799190611116565b6100b4565b005b34801561008c57600080fd5b5061009561089e565b6040516100a291906115aa565b60405180910390f35b60008054905090565b600680146100f7576040517f08c379a00000000000000000000000000000000000000000000000000000000081526004016100ee9061164c565b60405180910390fd5b6003801461013a576040517f08c379a0000000000000000000000000000000000000000000000000000000008152600401610131906115cc565b60405180910390fd5b600085511161017e576040517f08c379a00000000000000000000000000000000000000000000000000000000081526004016101759061162c565b60405180910390fd5b60003373ffffffffffffffffffffffffffffffffffffffff1631116101d8576040517f08c379a00000000000000000000000000000000000000000000000000000000081526004016101cf9061160c565b60405180910390fd5b6000341161021b576040517f08c379a00000000000000000000000000000000000000000000000000000000081526004016102129061166c565b60405180910390fd5b6000606485600060038110610259577f4e487b7100000000000000000000000000000000000000000000000000000000600052603260045260246000fd5b60200201513461026991906118e0565b61027391906118af565b90506000876000600681106102b1577f4e487b7100000000000000000000000000000000000000000000000000000000600052603260045260246000fd5b6020020151886001600681106102f0577f4e487b7100000000000000000000000000000000000000000000000000000000600052603260045260246000fd5b60200201516102ff919061193a565b90506000818361030f91906118af565b905060008960006006811061034d577f4e487b7100000000000000000000000000000000000000000000000000000000600052603260045260246000fd5b602002015190505b8960016006811061038f577f4e487b7100000000000000000000000000000000000000000000000000000000600052603260045260246000fd5b6020020151811015610446576103e9338a83815181106103d8577f4e487b7100000000000000000000000000000000000000000000000000000000600052603260045260246000fd5b6020026020010151848a8a8a610b73565b610433898281518110610425577f4e487b7100000000000000000000000000000000000000000000000000000000600052603260045260246000fd5b602002602001015183610d86565b808061043e90611a30565b915050610355565b50606487600160038110610483577f4e487b7100000000000000000000000000000000000000000000000000000000600052603260045260246000fd5b60200201513461049391906118e0565b61049d91906118af565b9250886002600681106104d9577f4e487b7100000000000000000000000000000000000000000000000000000000600052603260045260246000fd5b602002015189600360068110610518577f4e487b7100000000000000000000000000000000000000000000000000000000600052603260045260246000fd5b6020020151610527919061193a565b9150818361053591906118af565b9050600089600260068110610573577f4e487b7100000000000000000000000000000000000000000000000000000000600052603260045260246000fd5b602002015190505b896003600681106105b5577f4e487b7100000000000000000000000000000000000000000000000000000000600052603260045260246000fd5b602002015181101561066c5761060f338a83815181106105fe577f4e487b7100000000000000000000000000000000000000000000000000000000600052603260045260246000fd5b6020026020010151848a8a8a610b73565b61065989828151811061064b577f4e487b7100000000000000000000000000000000000000000000000000000000600052603260045260246000fd5b602002602001015183610d86565b808061066490611a30565b91505061057b565b506064876002600381106106a9577f4e487b7100000000000000000000000000000000000000000000000000000000600052603260045260246000fd5b6020020151346106b991906118e0565b6106c391906118af565b9250886004600681106106ff577f4e487b7100000000000000000000000000000000000000000000000000000000600052603260045260246000fd5b60200201518960056006811061073e577f4e487b7100000000000000000000000000000000000000000000000000000000600052603260045260246000fd5b602002015161074d919061193a565b9150818361075b91906118af565b9050600089600460068110610799577f4e487b7100000000000000000000000000000000000000000000000000000000600052603260045260246000fd5b602002015190505b896005600681106107db577f4e487b7100000000000000000000000000000000000000000000000000000000600052603260045260246000fd5b602002015181101561089257610835338a8381518110610824577f4e487b7100000000000000000000000000000000000000000000000000000000600052603260045260246000fd5b6020026020010151848a8a8a610b73565b61087f898281518110610871577f4e487b7100000000000000000000000000000000000000000000000000000000600052603260045260246000fd5b602002602001015183610d86565b808061088a90611a30565b9150506107a1565b50505050505050505050565b60606001805480602002602001604051908101604052809291908181526020016000905b82821015610b6a57838290600052602060002090600702016040518060e00160405290816000820160009054906101000a900473ffffffffffffffffffffffffffffffffffffffff1673ffffffffffffffffffffffffffffffffffffffff1673ffffffffffffffffffffffffffffffffffffffff1681526020016001820160009054906101000a900473ffffffffffffffffffffffffffffffffffffffff1673ffffffffffffffffffffffffffffffffffffffff1673ffffffffffffffffffffffffffffffffffffffff168152602001600282015481526020016003820180546109ab906119fe565b80601f01602080910402602001604051908101604052809291908181526020018280546109d7906119fe565b8015610a245780601f106109f957610100808354040283529160200191610a24565b820191906000526020600020905b815481529060010190602001808311610a0757829003601f168201915b50505050508152602001600482018054610a3d906119fe565b80601f0160208091040260200160405190810160405280929190818152602001828054610a69906119fe565b8015610ab65780601f10610a8b57610100808354040283529160200191610ab6565b820191906000526020600020905b815481529060010190602001808311610a9957829003601f168201915b50505050508152602001600582018054610acf906119fe565b80601f0160208091040260200160405190810160405280929190818152602001828054610afb906119fe565b8015610b485780601f10610b1d57610100808354040283529160200191610b48565b820191906000526020600020905b815481529060010190602001808311610b2b57829003601f168201915b50505050508152602001600682015481525050815260200190600101906108c2565b50505050905090565b6001600080828254610b859190611859565b9250508190555060016040518060e001604052808873ffffffffffffffffffffffffffffffffffffffff1681526020018773ffffffffffffffffffffffffffffffffffffffff16815260200186815260200185815260200184815260200183815260200142815250908060018154018082558091505060019003906000526020600020906007020160009091909190915060008201518160000160006101000a81548173ffffffffffffffffffffffffffffffffffffffff021916908373ffffffffffffffffffffffffffffffffffffffff16021790555060208201518160010160006101000a81548173ffffffffffffffffffffffffffffffffffffffff021916908373ffffffffffffffffffffffffffffffffffffffff160217905550604082015181600201556060820151816003019080519060200190610cca929190610e37565b506080820151816004019080519060200190610ce7929190610e37565b5060a0820151816005019080519060200190610d04929190610e37565b5060c0820151816006015550508473ffffffffffffffffffffffffffffffffffffffff168673ffffffffffffffffffffffffffffffffffffffff167fd0988c7ccb1825720ef331447f9c8558980f3f1b132aa85562d365061f1a8e098686868642604051610d769594939291906116a7565b60405180910390a3505050505050565b60008273ffffffffffffffffffffffffffffffffffffffff1682604051610dac90611595565b60006040518083038185875af1925050503d8060008114610de9576040519150601f19603f3d011682016040523d82523d6000602084013e610dee565b606091505b5050905080610e32576040517f08c379a0000000000000000000000000000000000000000000000000000000008152600401610e29906115ec565b60405180910390fd5b505050565b828054610e43906119fe565b90600052602060002090601f016020900481019282610e655760008555610eac565b82601f10610e7e57805160ff1916838001178555610eac565b82800160010185558215610eac579182015b82811115610eab578251825591602001919060010190610e90565b5b509050610eb99190610ebd565b5090565b5b80821115610ed6576000816000905550600101610ebe565b5090565b6000610eed610ee884611740565b61170f565b90508083825260208201905082856020860282011115610f0c57600080fd5b60005b85811015610f3c5781610f22888261104a565b845260208401935060208301925050600181019050610f0f565b5050509392505050565b6000610f59610f548461176c565b61170f565b90508082856020860282011115610f6f57600080fd5b60005b85811015610f9f5781610f858882611101565b845260208401935060208301925050600181019050610f72565b5050509392505050565b6000610fbc610fb784611792565b61170f565b90508082856020860282011115610fd257600080fd5b60005b858110156110025781610fe88882611101565b845260208401935060208301925050600181019050610fd5565b5050509392505050565b600061101f61101a846117b8565b61170f565b90508281526020810184848401111561103757600080fd5b6110428482856119bc565b509392505050565b60008135905061105981611b46565b92915050565b600082601f83011261107057600080fd5b8135611080848260208601610eda565b91505092915050565b600082601f83011261109a57600080fd5b60036110a7848285610f46565b91505092915050565b600082601f8301126110c157600080fd5b60066110ce848285610fa9565b91505092915050565b600082601f8301126110e857600080fd5b81356110f884826020860161100c565b91505092915050565b60008135905061111081611b5d565b92915050565b6000806000806000806101a0878903121561113057600080fd5b600061113e89828a016110b0565b96505060c087013567ffffffffffffffff81111561115b57600080fd5b61116789828a0161105f565b95505060e061117889828a01611089565b94505061014087013567ffffffffffffffff81111561119657600080fd5b6111a289828a016110d7565b93505061016087013567ffffffffffffffff8111156111c057600080fd5b6111cc89828a016110d7565b92505061018087013567ffffffffffffffff8111156111ea57600080fd5b6111f689828a016110d7565b9150509295509295509295565b600061120f83836114cd565b905092915050565b6112208161196e565b82525050565b6000611231826117f8565b61123b818561181b565b93508360208202850161124d856117e8565b8060005b85811015611289578484038952815161126a8582611203565b94506112758361180e565b925060208a01995050600181019050611251565b50829750879550505050505092915050565b60006112a682611803565b6112b08185611837565b93506112c08185602086016119cb565b6112c981611b35565b840191505092915050565b60006112df82611803565b6112e98185611848565b93506112f98185602086016119cb565b61130281611b35565b840191505092915050565b600061131a602183611848565b91507f496e76616c6964207070657263656e7461676573206172726179206c656e677460008301527f68000000000000000000000000000000000000000000000000000000000000006020830152604082019050919050565b6000611380601483611848565b91507f4661696c656420746f2073656e642045746865720000000000000000000000006000830152602082019050919050565b60006113c0601483611848565b91507f496e73756666696369656e742062616c616e63650000000000000000000000006000830152602082019050919050565b6000611400601683611848565b91507f4e6f2072656365697665727320737065636966696564000000000000000000006000830152602082019050919050565b6000611440601b83611848565b91507f496e76616c6964206c696d697473206172726179206c656e67746800000000006000830152602082019050919050565b600061148060008361182c565b9150600082019050919050565b600061149a601283611848565b91507f56616c7565206e6f742070726f766964656400000000000000000000000000006000830152602082019050919050565b600060e0830160008301516114e56000860182611217565b5060208301516114f86020860182611217565b50604083015161150b6040860182611577565b5060608301518482036060860152611523828261129b565b9150506080830151848203608086015261153d828261129b565b91505060a083015184820360a0860152611557828261129b565b91505060c083015161156c60c0860182611577565b508091505092915050565b611580816119b2565b82525050565b61158f816119b2565b82525050565b60006115a082611473565b9150819050919050565b600060208201905081810360008301526115c48184611226565b905092915050565b600060208201905081810360008301526115e58161130d565b9050919050565b6000602082019050818103600083015261160581611373565b9050919050565b60006020820190508181036000830152611625816113b3565b9050919050565b60006020820190508181036000830152611645816113f3565b9050919050565b6000602082019050818103600083015261166581611433565b9050919050565b600060208201905081810360008301526116858161148d565b9050919050565b60006020820190506116a16000830184611586565b92915050565b600060a0820190506116bc6000830188611586565b81810360208301526116ce81876112d4565b905081810360408301526116e281866112d4565b905081810360608301526116f681856112d4565b90506117056080830184611586565b9695505050505050565b6000604051905081810181811067ffffffffffffffff8211171561173657611735611b06565b5b8060405250919050565b600067ffffffffffffffff82111561175b5761175a611b06565b5b602082029050602081019050919050565b600067ffffffffffffffff82111561178757611786611b06565b5b602082029050919050565b600067ffffffffffffffff8211156117ad576117ac611b06565b5b602082029050919050565b600067ffffffffffffffff8211156117d3576117d2611b06565b5b601f19601f8301169050602081019050919050565b6000819050602082019050919050565b600081519050919050565b600081519050919050565b6000602082019050919050565b600082825260208201905092915050565b600081905092915050565b600082825260208201905092915050565b600082825260208201905092915050565b6000611864826119b2565b915061186f836119b2565b9250827fffffffffffffffffffffffffffffffffffffffffffffffffffffffffffffffff038211156118a4576118a3611a79565b5b828201905092915050565b60006118ba826119b2565b91506118c5836119b2565b9250826118d5576118d4611aa8565b5b828204905092915050565b60006118eb826119b2565b91506118f6836119b2565b9250817fffffffffffffffffffffffffffffffffffffffffffffffffffffffffffffffff048311821515161561192f5761192e611a79565b5b828202905092915050565b6000611945826119b2565b9150611950836119b2565b92508282101561196357611962611a79565b5b828203905092915050565b600061197982611992565b9050919050565b600061198b82611992565b9050919050565b600073ffffffffffffffffffffffffffffffffffffffff82169050919050565b6000819050919050565b82818337600083830152505050565b60005b838110156119e95780820151818401526020810190506119ce565b838111156119f8576000848401525b50505050565b60006002820490506001821680611a1657607f821691505b60208210811415611a2a57611a29611ad7565b5b50919050565b6000611a3b826119b2565b91507fffffffffffffffffffffffffffffffffffffffffffffffffffffffffffffffff821415611a6e57611a6d611a79565b5b600182019050919050565b7f4e487b7100000000000000000000000000000000000000000000000000000000600052601160045260246000fd5b7f4e487b7100000000000000000000000000000000000000000000000000000000600052601260045260246000fd5b7f4e487b7100000000000000000000000000000000000000000000000000000000600052602260045260246000fd5b7f4e487b7100000000000000000000000000000000000000000000000000000000600052604160045260246000fd5b6000601f19601f8301169050919050565b611b4f81611980565b8114611b5a57600080fd5b50565b611b66816119b2565b8114611b7157600080fd5b5056fea2646970667358221220a2c3c1160123b3c839541651ead27b9d22a8c7b4d0e62c3833f23bfa7b77629f64736f6c63430008000033",
  "linkReferences": {},
  "deployedLinkReferences": {}
}